{
  "contractName": "SignedDigitalAsset",
  "abi": [
    {
      "constant": true,
      "inputs": [],
      "name": "institution",
      "outputs": [
        {
          "name": "",
          "type": "string"
        }
      ],
      "payable": false,
      "stateMutability": "view",
      "type": "function"
    },
    {
      "inputs": [
        {
          "name": "_institution",
          "type": "string"
        }
      ],
      "payable": false,
      "stateMutability": "nonpayable",
      "type": "constructor"
    },
    {
      "anonymous": false,
      "inputs": [
        {
          "indexed": false,
          "name": "digitalFingerPrint",
          "type": "string"
        },
        {
          "indexed": false,
          "name": "signature",
          "type": "string"
        },
        {
          "indexed": false,
          "name": "timestamp",
          "type": "uint256"
        }
      ],
      "name": "SignatureAdded",
      "type": "event"
    },
    {
      "constant": false,
      "inputs": [
        {
          "name": "digitalFingerPrint",
          "type": "string"
        },
        {
          "name": "signature",
          "type": "string"
        }
      ],
      "name": "addSignature",
      "outputs": [],
      "payable": false,
      "stateMutability": "nonpayable",
      "type": "function"
    },
    {
      "constant": false,
      "inputs": [
        {
          "name": "digitalFingerPrint",
          "type": "string"
        }
      ],
      "name": "removeSignature",
      "outputs": [],
      "payable": false,
      "stateMutability": "nonpayable",
      "type": "function"
    },
    {
      "constant": true,
      "inputs": [
        {
          "name": "digitalFingerPrint",
          "type": "string"
        }
      ],
      "name": "getSignature",
      "outputs": [
        {
          "name": "",
          "type": "string"
        }
      ],
      "payable": false,
      "stateMutability": "view",
      "type": "function"
    },
    {
      "constant": false,
      "inputs": [],
      "name": "removeContract",
      "outputs": [],
      "payable": false,
      "stateMutability": "nonpayable",
      "type": "function"
    }
  ],
  "bytecode": "0x6080604052336000806101000a81548173ffffffffffffffffffffffffffffffffffffffff021916908373ffffffffffffffffffffffffffffffffffffffff16021790555034801561005057600080fd5b506040516109f73803806109f78339810180604052810190808051820192919050505080600190805190602001906100899291906100d1565b5033600360006101000a81548173ffffffffffffffffffffffffffffffffffffffff021916908373ffffffffffffffffffffffffffffffffffffffff16021790555050610176565b828054600181600116156101000203166002900490600052602060002090601f016020900481019282601f1061011257805160ff1916838001178555610140565b82800160010185558215610140579182015b8281111561013f578251825591602001919060010190610124565b5b50905061014d9190610151565b5090565b61017391905b8082111561016f576000816000905550600101610157565b5090565b90565b610872806101856000396000f30060806040526004361061006d576000357c0100000000000000000000000000000000000000000000000000000000900463ffffffff1680630a0c5e0d1461007257806329aa7ec5146100c55780635e95928714610100578063d1384eb6146101b4578063fe389e0914610244575b600080fd5b34801561007e57600080fd5b506100c360048036038101908080359060200190820180359060200191909192939192939080359060200190820180359060200191909192939192939050505061025b565b005b3480156100d157600080fd5b506100fe6004803603810190808035906020019082018035906020019190919293919293905050506103eb565b005b34801561010c57600080fd5b50610139600480360381019080803590602001908201803590602001919091929391929390505050610513565b6040518080602001828103825283818151815260200191508051906020019080838360005b8381101561017957808201518184015260208101905061015e565b50505050905090810190601f1680156101a65780820380516001836020036101000a031916815260200191505b509250505060405180910390f35b3480156101c057600080fd5b506101c96105ed565b6040518080602001828103825283818151815260200191508051906020019080838360005b838110156102095780820151818401526020810190506101ee565b50505050905090810190601f1680156102365780820380516001836020036101000a031916815260200191505b509250505060405180910390f35b34801561025057600080fd5b5061025961068b565b005b600360009054906101000a900473ffffffffffffffffffffffffffffffffffffffff1673ffffffffffffffffffffffffffffffffffffffff163373ffffffffffffffffffffffffffffffffffffffff161415156102b757600080fd5b8181600260008787604051602001808383808284378201915050925050506040516020818303038152906040526040518082805190602001908083835b60208310151561031957805182526020820191506020810190506020830392506102f4565b6001836020036101000a0380198251168184511680821785525050505050509050019150506040518091039020600019166000191681526020019081526020016000209190610369929190610721565b507fd7c4f9d3380f85f883d61ae5820d4912d3c1c06b49c35085feb3606f5af4b2db8484848442604051808060200180602001848152602001838103835288888281815260200192508082843782019150508381038252868682818152602001925080828437820191505097505050505050505060405180910390a150505050565b600360009054906101000a900473ffffffffffffffffffffffffffffffffffffffff1673ffffffffffffffffffffffffffffffffffffffff163373ffffffffffffffffffffffffffffffffffffffff1614151561044757600080fd5b6020604051908101604052806000815250600260008484604051602001808383808284378201915050925050506040516020818303038152906040526040518082805190602001908083835b6020831015156104b85780518252602082019150602081019050602083039250610493565b6001836020036101000a038019825116818451168082178552505050505050905001915050604051809103902060001916600019168152602001908152602001600020908051906020019061050e9291906107a1565b505050565b6060600260008484604051808383808284378201915050925050506040518091039020600019166000191681526020019081526020016000208054600181600116156101000203166002900480601f0160208091040260200160405190810160405280929190818152602001828054600181600116156101000203166002900480156105e05780601f106105b5576101008083540402835291602001916105e0565b820191906000526020600020905b8154815290600101906020018083116105c357829003601f168201915b5050505050905092915050565b60018054600181600116156101000203166002900480601f0160208091040260200160405190810160405280929190818152602001828054600181600116156101000203166002900480156106835780601f1061065857610100808354040283529160200191610683565b820191906000526020600020905b81548152906001019060200180831161066657829003601f168201915b505050505081565b600360009054906101000a900473ffffffffffffffffffffffffffffffffffffffff1673ffffffffffffffffffffffffffffffffffffffff163373ffffffffffffffffffffffffffffffffffffffff161415156106e757600080fd5b6000809054906101000a900473ffffffffffffffffffffffffffffffffffffffff1673ffffffffffffffffffffffffffffffffffffffff16ff5b828054600181600116156101000203166002900490600052602060002090601f016020900481019282601f1061076257803560ff1916838001178555610790565b82800160010185558215610790579182015b8281111561078f578235825591602001919060010190610774565b5b50905061079d9190610821565b5090565b828054600181600116156101000203166002900490600052602060002090601f016020900481019282601f106107e257805160ff1916838001178555610810565b82800160010185558215610810579182015b8281111561080f5782518255916020019190600101906107f4565b5b50905061081d9190610821565b5090565b61084391905b8082111561083f576000816000905550600101610827565b5090565b905600a165627a7a72305820e341453e506baf7fee41b8fa645e4aeae7aa1dc4803377342a66c98c20b00f430029",
  "source": "pragma solidity ^0.4.22;\n\ncontract SignedDigitalAsset {\n    // The owner of the contract\n    address owner = msg.sender;\n    // Institution name\n    string public institution;\n    // Storage for linking the signatures to the digital finterprints\n    mapping (bytes32 => string) fingerPrintSignatureMapping;\n\n    // Event\n    event SignatureAdded(string digitalFingerPrint, string signature, uint256 timestamp);\n    modifier isOwner() {\n        require( msg.sender == _master);\n        _;\n    }\n    address private _master;\n\n    constructor(string _institution) {\n        institution = _institution;\n        _master = msg.sender;\n    }\n\n    function addSignature(string digitalFingerPrint, string signature) external isOwner{\n        \n        // Add signature to the mapping\n        fingerPrintSignatureMapping[keccak256(abi.encodePacked(digitalFingerPrint))] = signature;\n        // Broadcast the token added event\n        SignatureAdded(digitalFingerPrint, signature, now);\n        \n    }\n\n    // Removes a signature from this contract\n    function removeSignature(string digitalFingerPrint) external isOwner{\n        fingerPrintSignatureMapping[keccak256(abi.encodePacked(digitalFingerPrint))]= \"\";\n    }\n\n    // Returns the corrsponding signature for a specified digial fingerprint\n    function getSignature(string digitalFingerPrint) external constant returns (string){\n        return fingerPrintSignatureMapping[keccak256(digitalFingerPrint)];\n    }\n\n    // Removes the entire contract from the blockchain and invalidates all signatures\n    function removeContract() external isOwner{ \n        selfdestruct(owner);\n    }\n}\n",
  "sourcePath": "/Users/Jake/Desktop/Jake_Programming/Project/DigitalFingerPrintonBlockchain/ethereum/contracts/SignedDigitalAsset.sol",
  "compiler": {
    "name": "solc",
    "version": "0.4.24+commit.e67f0147.Emscripten.clang"
  },
  "schemaVersion": "2.0.1",
  "updatedAt": "2019-01-07T18:17:00.538Z"
}